{
  "_format": "hh-sol-artifact-1",
  "contractName": "Pool",
  "sourceName": "contracts/Contract.sol",
  "abi": [
    {
      "inputs": [],
      "stateMutability": "nonpayable",
      "type": "constructor"
    },
    {
      "anonymous": false,
      "inputs": [
        {
          "indexed": true,
          "internalType": "address",
          "name": "owner",
          "type": "address"
        },
        {
          "indexed": true,
          "internalType": "address",
          "name": "spender",
          "type": "address"
        },
        {
          "indexed": false,
          "internalType": "uint256",
          "name": "value",
          "type": "uint256"
        }
      ],
      "name": "Approval",
      "type": "event"
    },
    {
      "anonymous": false,
      "inputs": [
        {
          "indexed": false,
          "internalType": "address",
          "name": "sender",
          "type": "address"
        },
        {
          "indexed": false,
          "internalType": "uint256",
          "name": "amount",
          "type": "uint256"
        }
      ],
      "name": "Deposit",
      "type": "event"
    },
    {
      "anonymous": false,
      "inputs": [
        {
          "indexed": true,
          "internalType": "address",
          "name": "from",
          "type": "address"
        },
        {
          "indexed": true,
          "internalType": "address",
          "name": "to",
          "type": "address"
        },
        {
          "indexed": false,
          "internalType": "uint256",
          "name": "value",
          "type": "uint256"
        }
      ],
      "name": "Transfer",
      "type": "event"
    },
    {
      "anonymous": false,
      "inputs": [
        {
          "indexed": false,
          "internalType": "address",
          "name": "receiver",
          "type": "address"
        },
        {
          "indexed": false,
          "internalType": "uint256",
          "name": "amount",
          "type": "uint256"
        },
        {
          "indexed": false,
          "internalType": "uint256",
          "name": "contractBalance",
          "type": "uint256"
        }
      ],
      "name": "Withdrawal",
      "type": "event"
    },
    {
      "inputs": [
        {
          "internalType": "address",
          "name": "owner",
          "type": "address"
        },
        {
          "internalType": "address",
          "name": "spender",
          "type": "address"
        }
      ],
      "name": "allowance",
      "outputs": [
        {
          "internalType": "uint256",
          "name": "",
          "type": "uint256"
        }
      ],
      "stateMutability": "view",
      "type": "function"
    },
    {
      "inputs": [
        {
          "internalType": "address",
          "name": "spender",
          "type": "address"
        },
        {
          "internalType": "uint256",
          "name": "amount",
          "type": "uint256"
        }
      ],
      "name": "approve",
      "outputs": [
        {
          "internalType": "bool",
          "name": "",
          "type": "bool"
        }
      ],
      "stateMutability": "nonpayable",
      "type": "function"
    },
    {
      "inputs": [
        {
          "internalType": "address",
          "name": "_address",
          "type": "address"
        }
      ],
      "name": "balance",
      "outputs": [
        {
          "internalType": "uint256",
          "name": "",
          "type": "uint256"
        }
      ],
      "stateMutability": "view",
      "type": "function"
    },
    {
      "inputs": [
        {
          "internalType": "address",
          "name": "account",
          "type": "address"
        }
      ],
      "name": "balanceOf",
      "outputs": [
        {
          "internalType": "uint256",
          "name": "",
          "type": "uint256"
        }
      ],
      "stateMutability": "view",
      "type": "function"
    },
    {
      "inputs": [],
      "name": "decimals",
      "outputs": [
        {
          "internalType": "uint8",
          "name": "",
          "type": "uint8"
        }
      ],
      "stateMutability": "view",
      "type": "function"
    },
    {
      "inputs": [
        {
          "internalType": "address",
          "name": "spender",
          "type": "address"
        },
        {
          "internalType": "uint256",
          "name": "subtractedValue",
          "type": "uint256"
        }
      ],
      "name": "decreaseAllowance",
      "outputs": [
        {
          "internalType": "bool",
          "name": "",
          "type": "bool"
        }
      ],
      "stateMutability": "nonpayable",
      "type": "function"
    },
    {
      "inputs": [],
      "name": "deposit",
      "outputs": [],
      "stateMutability": "payable",
      "type": "function"
    },
    {
      "inputs": [
        {
          "internalType": "address",
          "name": "spender",
          "type": "address"
        },
        {
          "internalType": "uint256",
          "name": "addedValue",
          "type": "uint256"
        }
      ],
      "name": "increaseAllowance",
      "outputs": [
        {
          "internalType": "bool",
          "name": "",
          "type": "bool"
        }
      ],
      "stateMutability": "nonpayable",
      "type": "function"
    },
    {
      "inputs": [],
      "name": "name",
      "outputs": [
        {
          "internalType": "string",
          "name": "",
          "type": "string"
        }
      ],
      "stateMutability": "view",
      "type": "function"
    },
    {
      "inputs": [
        {
          "internalType": "uint256",
          "name": "_amount",
          "type": "uint256"
        },
        {
          "internalType": "address",
          "name": "rouletteAddress",
          "type": "address"
        }
      ],
      "name": "placeBet",
      "outputs": [],
      "stateMutability": "nonpayable",
      "type": "function"
    },
    {
      "inputs": [],
      "name": "symbol",
      "outputs": [
        {
          "internalType": "string",
          "name": "",
          "type": "string"
        }
      ],
      "stateMutability": "view",
      "type": "function"
    },
    {
      "inputs": [],
      "name": "totalSupply",
      "outputs": [
        {
          "internalType": "uint256",
          "name": "",
          "type": "uint256"
        }
      ],
      "stateMutability": "view",
      "type": "function"
    },
    {
      "inputs": [
        {
          "internalType": "address",
          "name": "recipient",
          "type": "address"
        },
        {
          "internalType": "uint256",
          "name": "amount",
          "type": "uint256"
        }
      ],
      "name": "transfer",
      "outputs": [
        {
          "internalType": "bool",
          "name": "",
          "type": "bool"
        }
      ],
      "stateMutability": "nonpayable",
      "type": "function"
    },
    {
      "inputs": [
        {
          "internalType": "address",
          "name": "sender",
          "type": "address"
        },
        {
          "internalType": "address",
          "name": "recipient",
          "type": "address"
        },
        {
          "internalType": "uint256",
          "name": "amount",
          "type": "uint256"
        }
      ],
      "name": "transferFrom",
      "outputs": [
        {
          "internalType": "bool",
          "name": "",
          "type": "bool"
        }
      ],
      "stateMutability": "nonpayable",
      "type": "function"
    },
    {
      "inputs": [
        {
          "internalType": "uint256",
          "name": "amount",
          "type": "uint256"
        }
      ],
      "name": "withdraw",
      "outputs": [],
      "stateMutability": "nonpayable",
      "type": "function"
    },
    {
      "stateMutability": "payable",
      "type": "receive"
    }
  ],
  "bytecode": "0x60806040523480156200001157600080fd5b506040518060400160405280600781526020017f4c50546f6b656e000000000000000000000000000000000000000000000000008152506040518060400160405280600381526020017f4c50540000000000000000000000000000000000000000000000000000000000815250816003908051906020019062000096929190620000b8565b508060049080519060200190620000af929190620000b8565b505050620001cd565b828054620000c69062000168565b90600052602060002090601f016020900481019282620000ea576000855562000136565b82601f106200010557805160ff191683800117855562000136565b8280016001018555821562000136579182015b828111156200013557825182559160200191906001019062000118565b5b50905062000145919062000149565b5090565b5b80821115620001645760008160009055506001016200014a565b5090565b600060028204905060018216806200018157607f821691505b602082108114156200019857620001976200019e565b5b50919050565b7f4e487b7100000000000000000000000000000000000000000000000000000000600052602260045260246000fd5b611fbd80620001dd6000396000f3fe6080604052600436106100ec5760003560e01c806370a082311161008a578063bc1b606211610059578063bc1b60621461033b578063d0e30db014610364578063dd62ed3e1461036e578063e3d670d7146103ab576100f3565b806370a082311461025957806395d89b4114610296578063a457c2d7146102c1578063a9059cbb146102fe576100f3565b806323b872dd116100c657806323b872dd1461018b5780632e1a7d4d146101c8578063313ce567146101f1578063395093511461021c576100f3565b806306fdde03146100f8578063095ea7b31461012357806318160ddd14610160576100f3565b366100f357005b600080fd5b34801561010457600080fd5b5061010d6103e8565b60405161011a919061176d565b60405180910390f35b34801561012f57600080fd5b5061014a60048036038101906101459190611415565b61047a565b6040516101579190611752565b60405180910390f35b34801561016c57600080fd5b50610175610498565b604051610182919061192f565b60405180910390f35b34801561019757600080fd5b506101b260048036038101906101ad91906113c6565b6104a2565b6040516101bf9190611752565b60405180910390f35b3480156101d457600080fd5b506101ef60048036038101906101ea9190611451565b61059a565b005b3480156101fd57600080fd5b5061020661069f565b604051610213919061194a565b60405180910390f35b34801561022857600080fd5b50610243600480360381019061023e9190611415565b6106a8565b6040516102509190611752565b60405180910390f35b34801561026557600080fd5b50610280600480360381019061027b9190611361565b610754565b60405161028d919061192f565b60405180910390f35b3480156102a257600080fd5b506102ab61079c565b6040516102b8919061176d565b60405180910390f35b3480156102cd57600080fd5b506102e860048036038101906102e39190611415565b61082e565b6040516102f59190611752565b60405180910390f35b34801561030a57600080fd5b5061032560048036038101906103209190611415565b610919565b6040516103329190611752565b60405180910390f35b34801561034757600080fd5b50610362600480360381019061035d919061147a565b610937565b005b61036c610a53565b005b34801561037a57600080fd5b506103956004803603810190610390919061138a565b610ad0565b6040516103a2919061192f565b60405180910390f35b3480156103b757600080fd5b506103d260048036038101906103cd9190611361565b610b57565b6040516103df919061192f565b60405180910390f35b6060600380546103f790611b1e565b80601f016020809104026020016040519081016040528092919081815260200182805461042390611b1e565b80156104705780601f1061044557610100808354040283529160200191610470565b820191906000526020600020905b81548152906001019060200180831161045357829003601f168201915b5050505050905090565b600061048e610487610ba2565b8484610baa565b6001905092915050565b6000600254905090565b60006104af848484610d75565b6000600160008673ffffffffffffffffffffffffffffffffffffffff1673ffffffffffffffffffffffffffffffffffffffff16815260200190815260200160002060006104fa610ba2565b73ffffffffffffffffffffffffffffffffffffffff1673ffffffffffffffffffffffffffffffffffffffff1681526020019081526020016000205490508281101561057a576040517f08c379a00000000000000000000000000000000000000000000000000000000081526004016105719061184f565b60405180910390fd5b61058e85610586610ba2565b858403610baa565b60019150509392505050565b806105a433610b57565b10156105e5576040517f08c379a00000000000000000000000000000000000000000000000000000000081526004016105dc9061180f565b60405180910390fd5b6000476105f0610498565b836105fb91906119d7565b61060591906119d7565b90503373ffffffffffffffffffffffffffffffffffffffff166108fc839081150290604051600060405180830381858888f1935050505015801561064d573d6000803e3d6000fd5b506106583382610ff6565b7fdf273cb619d95419a9cd0ec88123a0538c85064229baa6363788f743fff90deb338361068433610b57565b6040516106939392919061171b565b60405180910390a15050565b60006012905090565b600061074a6106b5610ba2565b8484600160006106c3610ba2565b73ffffffffffffffffffffffffffffffffffffffff1673ffffffffffffffffffffffffffffffffffffffff16815260200190815260200160002060008873ffffffffffffffffffffffffffffffffffffffff1673ffffffffffffffffffffffffffffffffffffffff168152602001908152602001600020546107459190611981565b610baa565b6001905092915050565b60008060008373ffffffffffffffffffffffffffffffffffffffff1673ffffffffffffffffffffffffffffffffffffffff168152602001908152602001600020549050919050565b6060600480546107ab90611b1e565b80601f01602080910402602001604051908101604052809291908181526020018280546107d790611b1e565b80156108245780601f106107f957610100808354040283529160200191610824565b820191906000526020600020905b81548152906001019060200180831161080757829003601f168201915b5050505050905090565b6000806001600061083d610ba2565b73ffffffffffffffffffffffffffffffffffffffff1673ffffffffffffffffffffffffffffffffffffffff16815260200190815260200160002060008573ffffffffffffffffffffffffffffffffffffffff1673ffffffffffffffffffffffffffffffffffffffff168152602001908152602001600020549050828110156108fa576040517f08c379a00000000000000000000000000000000000000000000000000000000081526004016108f1906118ef565b60405180910390fd5b61090e610905610ba2565b85858403610baa565b600191505092915050565b600061092d610926610ba2565b8484610d75565b6001905092915050565b8147101561097a576040517f08c379a0000000000000000000000000000000000000000000000000000000008152600401610971906117af565b60405180910390fd5b8073ffffffffffffffffffffffffffffffffffffffff163373ffffffffffffffffffffffffffffffffffffffff16146109e8576040517f08c379a00000000000000000000000000000000000000000000000000000000081526004016109df9061186f565b60405180910390fd5b60008190508073ffffffffffffffffffffffffffffffffffffffff1663c880bc16846040518263ffffffff1660e01b81526004016000604051808303818588803b158015610a3557600080fd5b505af1158015610a49573d6000803e3d6000fd5b5050505050505050565b7fe1fffcc4923d04b559f4d29a8bfc6cda04eb5b0d3c460751c2402c5c5cc9109c3334604051610a849291906116f2565b60405180910390a16000620f424047620f424034610aa29190611a08565b610aac91906119d7565b34610ab79190611a08565b610ac191906119d7565b9050610acd33826111cd565b50565b6000600160008473ffffffffffffffffffffffffffffffffffffffff1673ffffffffffffffffffffffffffffffffffffffff16815260200190815260200160002060008373ffffffffffffffffffffffffffffffffffffffff1673ffffffffffffffffffffffffffffffffffffffff16815260200190815260200160002054905092915050565b6000620f4240610b65610498565b620f4240610b7285610754565b610b7c9190611a08565b610b8691906119d7565b47610b919190611a08565b610b9b91906119d7565b9050919050565b600033905090565b600073ffffffffffffffffffffffffffffffffffffffff168373ffffffffffffffffffffffffffffffffffffffff161415610c1a576040517f08c379a0000000000000000000000000000000000000000000000000000000008152600401610c11906118cf565b60405180910390fd5b600073ffffffffffffffffffffffffffffffffffffffff168273ffffffffffffffffffffffffffffffffffffffff161415610c8a576040517f08c379a0000000000000000000000000000000000000000000000000000000008152600401610c81906117ef565b60405180910390fd5b80600160008573ffffffffffffffffffffffffffffffffffffffff1673ffffffffffffffffffffffffffffffffffffffff16815260200190815260200160002060008473ffffffffffffffffffffffffffffffffffffffff1673ffffffffffffffffffffffffffffffffffffffff168152602001908152602001600020819055508173ffffffffffffffffffffffffffffffffffffffff168373ffffffffffffffffffffffffffffffffffffffff167f8c5be1e5ebec7d5bd14f71427d1e84f3dd0314c0f7b2291e5b200ac8c7c3b92583604051610d68919061192f565b60405180910390a3505050565b600073ffffffffffffffffffffffffffffffffffffffff168373ffffffffffffffffffffffffffffffffffffffff161415610de5576040517f08c379a0000000000000000000000000000000000000000000000000000000008152600401610ddc906118af565b60405180910390fd5b600073ffffffffffffffffffffffffffffffffffffffff168273ffffffffffffffffffffffffffffffffffffffff161415610e55576040517f08c379a0000000000000000000000000000000000000000000000000000000008152600401610e4c9061178f565b60405180910390fd5b610e6083838361132d565b60008060008573ffffffffffffffffffffffffffffffffffffffff1673ffffffffffffffffffffffffffffffffffffffff16815260200190815260200160002054905081811015610ee6576040517f08c379a0000000000000000000000000000000000000000000000000000000008152600401610edd9061182f565b60405180910390fd5b8181036000808673ffffffffffffffffffffffffffffffffffffffff1673ffffffffffffffffffffffffffffffffffffffff16815260200190815260200160002081905550816000808573ffffffffffffffffffffffffffffffffffffffff1673ffffffffffffffffffffffffffffffffffffffff1681526020019081526020016000206000828254610f799190611981565b925050819055508273ffffffffffffffffffffffffffffffffffffffff168473ffffffffffffffffffffffffffffffffffffffff167fddf252ad1be2c89b69c2b068fc378daa952ba7f163c4a11628f55a4df523b3ef84604051610fdd919061192f565b60405180910390a3610ff0848484611332565b50505050565b600073ffffffffffffffffffffffffffffffffffffffff168273ffffffffffffffffffffffffffffffffffffffff161415611066576040517f08c379a000000000000000000000000000000000000000000000000000000000815260040161105d9061188f565b60405180910390fd5b6110728260008361132d565b60008060008473ffffffffffffffffffffffffffffffffffffffff1673ffffffffffffffffffffffffffffffffffffffff168152602001908152602001600020549050818110156110f8576040517f08c379a00000000000000000000000000000000000000000000000000000000081526004016110ef906117cf565b60405180910390fd5b8181036000808573ffffffffffffffffffffffffffffffffffffffff1673ffffffffffffffffffffffffffffffffffffffff16815260200190815260200160002081905550816002600082825461114f9190611a62565b92505081905550600073ffffffffffffffffffffffffffffffffffffffff168373ffffffffffffffffffffffffffffffffffffffff167fddf252ad1be2c89b69c2b068fc378daa952ba7f163c4a11628f55a4df523b3ef846040516111b4919061192f565b60405180910390a36111c883600084611332565b505050565b600073ffffffffffffffffffffffffffffffffffffffff168273ffffffffffffffffffffffffffffffffffffffff16141561123d576040517f08c379a00000000000000000000000000000000000000000000000000000000081526004016112349061190f565b60405180910390fd5b6112496000838361132d565b806002600082825461125b9190611981565b92505081905550806000808473ffffffffffffffffffffffffffffffffffffffff1673ffffffffffffffffffffffffffffffffffffffff16815260200190815260200160002060008282546112b09190611981565b925050819055508173ffffffffffffffffffffffffffffffffffffffff16600073ffffffffffffffffffffffffffffffffffffffff167fddf252ad1be2c89b69c2b068fc378daa952ba7f163c4a11628f55a4df523b3ef83604051611315919061192f565b60405180910390a361132960008383611332565b5050565b505050565b505050565b60008135905061134681611f59565b92915050565b60008135905061135b81611f70565b92915050565b60006020828403121561137357600080fd5b600061138184828501611337565b91505092915050565b6000806040838503121561139d57600080fd5b60006113ab85828601611337565b92505060206113bc85828601611337565b9150509250929050565b6000806000606084860312156113db57600080fd5b60006113e986828701611337565b93505060206113fa86828701611337565b925050604061140b8682870161134c565b9150509250925092565b6000806040838503121561142857600080fd5b600061143685828601611337565b92505060206114478582860161134c565b9150509250929050565b60006020828403121561146357600080fd5b60006114718482850161134c565b91505092915050565b6000806040838503121561148d57600080fd5b600061149b8582860161134c565b92505060206114ac85828601611337565b9150509250929050565b6114bf81611a96565b82525050565b6114ce81611aa8565b82525050565b60006114df82611965565b6114e98185611970565b93506114f9818560208601611aeb565b61150281611bdd565b840191505092915050565b600061151a602383611970565b915061152582611bee565b604082019050919050565b600061153d601883611970565b915061154882611c3d565b602082019050919050565b6000611560602283611970565b915061156b82611c66565b604082019050919050565b6000611583602283611970565b915061158e82611cb5565b604082019050919050565b60006115a6601283611970565b91506115b182611d04565b602082019050919050565b60006115c9602683611970565b91506115d482611d2d565b604082019050919050565b60006115ec602883611970565b91506115f782611d7c565b604082019050919050565b600061160f601b83611970565b915061161a82611dcb565b602082019050919050565b6000611632602183611970565b915061163d82611df4565b604082019050919050565b6000611655602583611970565b915061166082611e43565b604082019050919050565b6000611678602483611970565b915061168382611e92565b604082019050919050565b600061169b602583611970565b91506116a682611ee1565b604082019050919050565b60006116be601f83611970565b91506116c982611f30565b602082019050919050565b6116dd81611ad4565b82525050565b6116ec81611ade565b82525050565b600060408201905061170760008301856114b6565b61171460208301846116d4565b9392505050565b600060608201905061173060008301866114b6565b61173d60208301856116d4565b61174a60408301846116d4565b949350505050565b600060208201905061176760008301846114c5565b92915050565b6000602082019050818103600083015261178781846114d4565b905092915050565b600060208201905081810360008301526117a88161150d565b9050919050565b600060208201905081810360008301526117c881611530565b9050919050565b600060208201905081810360008301526117e881611553565b9050919050565b6000602082019050818103600083015261180881611576565b9050919050565b6000602082019050818103600083015261182881611599565b9050919050565b60006020820190508181036000830152611848816115bc565b9050919050565b60006020820190508181036000830152611868816115df565b9050919050565b6000602082019050818103600083015261188881611602565b9050919050565b600060208201905081810360008301526118a881611625565b9050919050565b600060208201905081810360008301526118c881611648565b9050919050565b600060208201905081810360008301526118e88161166b565b9050919050565b600060208201905081810360008301526119088161168e565b9050919050565b60006020820190508181036000830152611928816116b1565b9050919050565b600060208201905061194460008301846116d4565b92915050565b600060208201905061195f60008301846116e3565b92915050565b600081519050919050565b600082825260208201905092915050565b600061198c82611ad4565b915061199783611ad4565b9250827fffffffffffffffffffffffffffffffffffffffffffffffffffffffffffffffff038211156119cc576119cb611b50565b5b828201905092915050565b60006119e282611ad4565b91506119ed83611ad4565b9250826119fd576119fc611b7f565b5b828204905092915050565b6000611a1382611ad4565b9150611a1e83611ad4565b9250817fffffffffffffffffffffffffffffffffffffffffffffffffffffffffffffffff0483118215151615611a5757611a56611b50565b5b828202905092915050565b6000611a6d82611ad4565b9150611a7883611ad4565b925082821015611a8b57611a8a611b50565b5b828203905092915050565b6000611aa182611ab4565b9050919050565b60008115159050919050565b600073ffffffffffffffffffffffffffffffffffffffff82169050919050565b6000819050919050565b600060ff82169050919050565b60005b83811015611b09578082015181840152602081019050611aee565b83811115611b18576000848401525b50505050565b60006002820490506001821680611b3657607f821691505b60208210811415611b4a57611b49611bae565b5b50919050565b7f4e487b7100000000000000000000000000000000000000000000000000000000600052601160045260246000fd5b7f4e487b7100000000000000000000000000000000000000000000000000000000600052601260045260246000fd5b7f4e487b7100000000000000000000000000000000000000000000000000000000600052602260045260246000fd5b6000601f19601f8301169050919050565b7f45524332303a207472616e7366657220746f20746865207a65726f206164647260008201527f6573730000000000000000000000000000000000000000000000000000000000602082015250565b7f496e73756666696369656e7420486f7573652046756e64730000000000000000600082015250565b7f45524332303a206275726e20616d6f756e7420657863656564732062616c616e60008201527f6365000000000000000000000000000000000000000000000000000000000000602082015250565b7f45524332303a20617070726f766520746f20746865207a65726f20616464726560008201527f7373000000000000000000000000000000000000000000000000000000000000602082015250565b7f496e73756666696369656e742046756e64730000000000000000000000000000600082015250565b7f45524332303a207472616e7366657220616d6f756e742065786365656473206260008201527f616c616e63650000000000000000000000000000000000000000000000000000602082015250565b7f45524332303a207472616e7366657220616d6f756e742065786365656473206160008201527f6c6c6f77616e6365000000000000000000000000000000000000000000000000602082015250565b7f46756e6374696f6e206e6f742043616c6c65642062792047616d650000000000600082015250565b7f45524332303a206275726e2066726f6d20746865207a65726f2061646472657360008201527f7300000000000000000000000000000000000000000000000000000000000000602082015250565b7f45524332303a207472616e736665722066726f6d20746865207a65726f20616460008201527f6472657373000000000000000000000000000000000000000000000000000000602082015250565b7f45524332303a20617070726f76652066726f6d20746865207a65726f2061646460008201527f7265737300000000000000000000000000000000000000000000000000000000602082015250565b7f45524332303a2064656372656173656420616c6c6f77616e63652062656c6f7760008201527f207a65726f000000000000000000000000000000000000000000000000000000602082015250565b7f45524332303a206d696e7420746f20746865207a65726f206164647265737300600082015250565b611f6281611a96565b8114611f6d57600080fd5b50565b611f7981611ad4565b8114611f8457600080fd5b5056fea26469706673582212208869e0108ea170c0a3941de44e83cce5db430666ed8013a1a3e4f7a0c103afb764736f6c63430008040033",
  "linkReferences": {},
  "deployedLinkReferences": {}
}