{
  "_format": "hh-sol-artifact-1",
  "contractName": "Roulette",
  "sourceName": "contracts/Contract.sol",
  "abi": [
    {
      "inputs": [
        {
          "internalType": "address payable",
          "name": "_house",
          "type": "address"
        }
      ],
      "stateMutability": "nonpayable",
      "type": "constructor"
    },
    {
      "anonymous": false,
      "inputs": [
        {
          "indexed": false,
          "internalType": "uint256",
          "name": "value",
          "type": "uint256"
        },
        {
          "indexed": false,
          "internalType": "address",
          "name": "addr",
          "type": "address"
        }
      ],
      "name": "NewBet",
      "type": "event"
    },
    {
      "anonymous": false,
      "inputs": [
        {
          "indexed": false,
          "internalType": "string",
          "name": "name",
          "type": "string"
        },
        {
          "indexed": false,
          "internalType": "uint256",
          "name": "value",
          "type": "uint256"
        },
        {
          "indexed": false,
          "internalType": "string",
          "name": "betResult",
          "type": "string"
        },
        {
          "indexed": false,
          "internalType": "uint256",
          "name": "gameOutcome",
          "type": "uint256"
        }
      ],
      "name": "Winner",
      "type": "event"
    },
    {
      "inputs": [
        {
          "internalType": "uint8",
          "name": "_risk",
          "type": "uint8"
        }
      ],
      "name": "adjustRisk",
      "outputs": [],
      "stateMutability": "nonpayable",
      "type": "function"
    },
    {
      "inputs": [
        {
          "internalType": "uint256",
          "name": "guess",
          "type": "uint256"
        }
      ],
      "name": "createBet",
      "outputs": [],
      "stateMutability": "payable",
      "type": "function"
    },
    {
      "inputs": [],
      "name": "determineMaxBet",
      "outputs": [
        {
          "internalType": "uint256",
          "name": "",
          "type": "uint256"
        }
      ],
      "stateMutability": "view",
      "type": "function"
    },
    {
      "inputs": [],
      "name": "houseBet",
      "outputs": [],
      "stateMutability": "payable",
      "type": "function"
    },
    {
      "inputs": [],
      "name": "loseStreak",
      "outputs": [
        {
          "internalType": "uint8",
          "name": "",
          "type": "uint8"
        }
      ],
      "stateMutability": "view",
      "type": "function"
    },
    {
      "inputs": [],
      "name": "risk",
      "outputs": [
        {
          "internalType": "uint8",
          "name": "",
          "type": "uint8"
        }
      ],
      "stateMutability": "view",
      "type": "function"
    },
    {
      "stateMutability": "payable",
      "type": "receive"
    }
  ],
  "bytecode": "0x60806040523480156200001157600080fd5b506040516200172f3803806200172f8339818101604052810190620000379190620000f2565b806000806101000a81548173ffffffffffffffffffffffffffffffffffffffff021916908373ffffffffffffffffffffffffffffffffffffffff16021790555033600160006101000a81548173ffffffffffffffffffffffffffffffffffffffff021916908373ffffffffffffffffffffffffffffffffffffffff1602179055506008600160156101000a81548160ff021916908360ff160217905550506200016c565b600081519050620000ec8162000152565b92915050565b6000602082840312156200010557600080fd5b60006200011584828501620000db565b91505092915050565b60006200012b8262000132565b9050919050565b600073ffffffffffffffffffffffffffffffffffffffff82169050919050565b6200015d816200011e565b81146200016957600080fd5b50565b6115b3806200017c6000396000f3fe6080604052600436106100595760003560e01c8063426a0c8814610065578063892e0a3214610090578063ac793a60146100bb578063c637092c146100d7578063c880bc1614610100578063db28e1361461010a57610060565b3661006057005b600080fd5b34801561007157600080fd5b5061007a610135565b604051610087919061105a565b60405180910390f35b34801561009c57600080fd5b506100a5610148565b6040516100b29190611016565b60405180910390f35b6100d560048036038101906100d09190610cb1565b6101db565b005b3480156100e357600080fd5b506100fe60048036038101906100f99190610cda565b610479565b005b610108610527565b005b34801561011657600080fd5b5061011f6105bf565b60405161012c919061105a565b60405180910390f35b600160159054906101000a900460ff1681565b600080600160149054906101000a900460ff16600160159054906101000a900460ff166101759190611282565b60ff169050600c816002610189919061110a565b60008054906101000a900473ffffffffffffffffffffffffffffffffffffffff1673ffffffffffffffffffffffffffffffffffffffff16316101cb9190611086565b6101d59190611086565b91505090565b6101e3610148565b3411156101ef57600080fd5b600160009054906101000a900473ffffffffffffffffffffffffffffffffffffffff1673ffffffffffffffffffffffffffffffffffffffff166108fc6064346102389190611086565b9081150290604051600060405180830381858888f19350505050158015610263573d6000803e3d6000fd5b507f189ba8d04ab0c61f5498ae9bd2b2295cd60d6fc895cac86feeb1ee28d1b782d23433604051610295929190611031565b60405180910390a160006040518060a001604052803373ffffffffffffffffffffffffffffffffffffffff16815260200134815260200183815260200160008152602001826002811115610312577f4e487b7100000000000000000000000000000000000000000000000000000000600052602160045260246000fd5b815250600260008201518160000160006101000a81548173ffffffffffffffffffffffffffffffffffffffff021916908373ffffffffffffffffffffffffffffffffffffffff16021790555060208201518160010155604082015181600201556060820151816003015560808201518160040160006101000a81548160ff021916908360028111156103cd577f4e487b7100000000000000000000000000000000000000000000000000000000600052602160045260246000fd5b021790555090505060008060009054906101000a900473ffffffffffffffffffffffffffffffffffffffff1690508073ffffffffffffffffffffffffffffffffffffffff1663bc1b6062600b346104249190611228565b306040518363ffffffff1660e01b8152600401610442929190611031565b600060405180830381600087803b15801561045c57600080fd5b505af1158015610470573d6000803e3d6000fd5b50505050505050565b600160009054906101000a900473ffffffffffffffffffffffffffffffffffffffff1673ffffffffffffffffffffffffffffffffffffffff163373ffffffffffffffffffffffffffffffffffffffff1614610509576040517f08c379a000000000000000000000000000000000000000000000000000000000815260040161050090610ff6565b60405180910390fd5b80600160156101000a81548160ff021916908360ff16021790555050565b60008054906101000a900473ffffffffffffffffffffffffffffffffffffffff1673ffffffffffffffffffffffffffffffffffffffff163373ffffffffffffffffffffffffffffffffffffffff16146105b5576040517f08c379a00000000000000000000000000000000000000000000000000000000081526004016105ac90610fd6565b60405180910390fd5b6105bd6105d2565b565b600160149054906101000a900460ff1681565b6105da610c48565b600260030181905550600060028001541480156105fc57506011600260030154105b8061062e57506001600280015414801561061c5750600260030154601111155b801561062d57506022600260030154105b5b8061064f57506002806002015414801561064e5750602260026003015410155b5b156106ac5760028060040160006101000a81548160ff021916908360028111156106a2577f4e487b7100000000000000000000000000000000000000000000000000000000600052602160045260246000fd5b0217905550610701565b6001600260040160006101000a81548160ff021916908360028111156106fb577f4e487b7100000000000000000000000000000000000000000000000000000000600052602160045260246000fd5b02179055505b60028081111561073a577f4e487b7100000000000000000000000000000000000000000000000000000000600052602160045260246000fd5b600260040160009054906101000a900460ff166002811115610785577f4e487b7100000000000000000000000000000000000000000000000000000000600052602160045260246000fd5b1415610b83576001601481819054906101000a900460ff16809291906107aa90611311565b91906101000a81548160ff021916908360ff16021790555050600060028001541415610906577fd92eb9542ce1165ad132f5de2ce2688e1f863d2c44006e2e72b5a9e59d95105c600280600101546108029190611228565b600260030154604051610816929190610ee9565b60405180910390a1600260000160009054906101000a900473ffffffffffffffffffffffffffffffffffffffff1673ffffffffffffffffffffffffffffffffffffffff166108fc6002806001015461086e9190611228565b9081150290604051600060405180830381858888f19350505050158015610899573d6000803e3d6000fd5b5060008054906101000a900473ffffffffffffffffffffffffffffffffffffffff1673ffffffffffffffffffffffffffffffffffffffff166108fc479081150290604051600060405180830381858888f19350505050158015610900573d6000803e3d6000fd5b50610b7e565b600160028001541415610a49577fd92eb9542ce1165ad132f5de2ce2688e1f863d2c44006e2e72b5a9e59d95105c600280600101546109459190611228565b600260030154604051610959929190610f38565b60405180910390a1600260000160009054906101000a900473ffffffffffffffffffffffffffffffffffffffff1673ffffffffffffffffffffffffffffffffffffffff166108fc600280600101546109b19190611228565b9081150290604051600060405180830381858888f193505050501580156109dc573d6000803e3d6000fd5b5060008054906101000a900473ffffffffffffffffffffffffffffffffffffffff1673ffffffffffffffffffffffffffffffffffffffff166108fc479081150290604051600060405180830381858888f19350505050158015610a43573d6000803e3d6000fd5b50610b7d565b7fd92eb9542ce1165ad132f5de2ce2688e1f863d2c44006e2e72b5a9e59d95105c600c600260010154610a7c9190611228565b600260030154604051610a90929190610e9a565b60405180910390a1600260000160009054906101000a900473ffffffffffffffffffffffffffffffffffffffff1673ffffffffffffffffffffffffffffffffffffffff166108fc600c600260010154610ae99190611228565b9081150290604051600060405180830381858888f19350505050158015610b14573d6000803e3d6000fd5b5060008054906101000a900473ffffffffffffffffffffffffffffffffffffffff1673ffffffffffffffffffffffffffffffffffffffff166108fc479081150290604051600060405180830381858888f19350505050158015610b7b573d6000803e3d6000fd5b505b5b610c46565b6000600160146101000a81548160ff021916908360ff1602179055507fd92eb9542ce1165ad132f5de2ce2688e1f863d2c44006e2e72b5a9e59d95105c6000600260030154604051610bd6929190610f87565b60405180910390a160008054906101000a900473ffffffffffffffffffffffffffffffffffffffff1673ffffffffffffffffffffffffffffffffffffffff166108fc479081150290604051600060405180830381858888f19350505050158015610c44573d6000803e3d6000fd5b505b565b600060244442604051602001610c5f929190610e6e565b6040516020818303038152906040528051906020012060001c610c829190611345565b905090565b600081359050610c968161154f565b92915050565b600081359050610cab81611566565b92915050565b600060208284031215610cc357600080fd5b6000610cd184828501610c87565b91505092915050565b600060208284031215610cec57600080fd5b6000610cfa84828501610c9c565b91505092915050565b610d0c816112b6565b82525050565b610d1b816112ff565b82525050565b6000610d2e600683611075565b9150610d39826113e1565b602082019050919050565b6000610d51600583611075565b9150610d5c8261140a565b602082019050919050565b6000610d74600583611075565b9150610d7f82611433565b602082019050919050565b6000610d97600583611075565b9150610da28261145c565b602082019050919050565b6000610dba602b83611075565b9150610dc582611485565b604082019050919050565b6000610ddd601c83611075565b9150610de8826114d4565b602082019050919050565b6000610e00600483611075565b9150610e0b826114fd565b602082019050919050565b6000610e23600383611075565b9150610e2e82611526565b602082019050919050565b610e42816112e8565b82525050565b610e59610e54826112e8565b61133b565b82525050565b610e68816112f2565b82525050565b6000610e7a8285610e48565b602082019150610e8a8284610e48565b6020820191508190509392505050565b60006080820190508181036000830152610eb381610d21565b9050610ec26020830185610e39565b8181036040830152610ed381610d44565b9050610ee26060830184610e39565b9392505050565b60006080820190508181036000830152610f0281610d21565b9050610f116020830185610e39565b8181036040830152610f2281610d67565b9050610f316060830184610e39565b9392505050565b60006080820190508181036000830152610f5181610d21565b9050610f606020830185610e39565b8181036040830152610f7181610e16565b9050610f806060830184610e39565b9392505050565b60006080820190508181036000830152610fa081610d8a565b9050610faf6020830185610d12565b8181036040830152610fc081610df3565b9050610fcf6060830184610e39565b9392505050565b60006020820190508181036000830152610fef81610dad565b9050919050565b6000602082019050818103600083015261100f81610dd0565b9050919050565b600060208201905061102b6000830184610e39565b92915050565b60006040820190506110466000830185610e39565b6110536020830184610d03565b9392505050565b600060208201905061106f6000830184610e5f565b92915050565b600082825260208201905092915050565b6000611091826112e8565b915061109c836112e8565b9250826110ac576110ab6113a5565b5b828204905092915050565b6000808291508390505b6001851115611101578086048111156110dd576110dc611376565b5b60018516156110ec5780820291505b80810290506110fa856113d4565b94506110c1565b94509492505050565b6000611115826112e8565b9150611120836112e8565b925061114d7fffffffffffffffffffffffffffffffffffffffffffffffffffffffffffffffff8484611155565b905092915050565b6000826111655760019050611221565b816111735760009050611221565b81600181146111895760028114611193576111c2565b6001915050611221565b60ff8411156111a5576111a4611376565b5b8360020a9150848211156111bc576111bb611376565b5b50611221565b5060208310610133831016604e8410600b84101617156111f75782820a9050838111156111f2576111f1611376565b5b611221565b61120484848460016110b7565b9250905081840481111561121b5761121a611376565b5b81810290505b9392505050565b6000611233826112e8565b915061123e836112e8565b9250817fffffffffffffffffffffffffffffffffffffffffffffffffffffffffffffffff048311821515161561127757611276611376565b5b828202905092915050565b600061128d826112f2565b9150611298836112f2565b9250828210156112ab576112aa611376565b5b828203905092915050565b60006112c1826112c8565b9050919050565b600073ffffffffffffffffffffffffffffffffffffffff82169050919050565b6000819050919050565b600060ff82169050919050565b600061130a826112e8565b9050919050565b600061131c826112f2565b915060ff8214156113305761132f611376565b5b600182019050919050565b6000819050919050565b6000611350826112e8565b915061135b836112e8565b92508261136b5761136a6113a5565b5b828206905092915050565b7f4e487b7100000000000000000000000000000000000000000000000000000000600052601160045260246000fd5b7f4e487b7100000000000000000000000000000000000000000000000000000000600052601260045260246000fd5b60008160011c9050919050565b7f504c415945520000000000000000000000000000000000000000000000000000600082015250565b7f475245454e000000000000000000000000000000000000000000000000000000600082015250565b7f424c41434b000000000000000000000000000000000000000000000000000000600082015250565b7f484f555345000000000000000000000000000000000000000000000000000000600082015250565b7f46756e6374696f6e20776173206e6f742043616c6c656420496e7465726e616c60008201527f6c7920627920486f757365000000000000000000000000000000000000000000602082015250565b7f46756e6374696f6e206e6f742063616c6c6564206279206f776e657200000000600082015250565b7f4c4f535400000000000000000000000000000000000000000000000000000000600082015250565b7f5245440000000000000000000000000000000000000000000000000000000000600082015250565b611558816112e8565b811461156357600080fd5b50565b61156f816112f2565b811461157a57600080fd5b5056fea2646970667358221220772fbd1084926b69634c71cfec82f29fd46929d6f95e381fa99a8c0c8dff241e64736f6c63430008040033",
  "linkReferences": {},
  "deployedLinkReferences": {}
}