{
  "_format": "hh-sol-artifact-1",
  "contractName": "Roulette",
  "sourceName": "contracts/Contract.sol",
  "abi": [
    {
      "inputs": [
        {
          "internalType": "address payable",
          "name": "_house",
          "type": "address"
        }
      ],
      "stateMutability": "nonpayable",
      "type": "constructor"
    },
    {
      "anonymous": false,
      "inputs": [
        {
          "indexed": false,
          "internalType": "uint256",
          "name": "value",
          "type": "uint256"
        },
        {
          "indexed": false,
          "internalType": "address",
          "name": "addr",
          "type": "address"
        }
      ],
      "name": "NewBet",
      "type": "event"
    },
    {
      "anonymous": false,
      "inputs": [
        {
          "indexed": false,
          "internalType": "string",
          "name": "name",
          "type": "string"
        },
        {
          "indexed": false,
          "internalType": "uint256",
          "name": "value",
          "type": "uint256"
        },
        {
          "indexed": false,
          "internalType": "string",
          "name": "betResult",
          "type": "string"
        },
        {
          "indexed": false,
          "internalType": "uint256",
          "name": "gameOutcome",
          "type": "uint256"
        }
      ],
      "name": "Winner",
      "type": "event"
    },
    {
      "inputs": [
        {
          "internalType": "uint8",
          "name": "_risk",
          "type": "uint8"
        }
      ],
      "name": "adjustRisk",
      "outputs": [],
      "stateMutability": "nonpayable",
      "type": "function"
    },
    {
      "inputs": [
        {
          "internalType": "uint256",
          "name": "guess",
          "type": "uint256"
        }
      ],
      "name": "createBet",
      "outputs": [],
      "stateMutability": "payable",
      "type": "function"
    },
    {
      "inputs": [],
      "name": "determineMaxBet",
      "outputs": [
        {
          "internalType": "uint256",
          "name": "",
          "type": "uint256"
        }
      ],
      "stateMutability": "view",
      "type": "function"
    },
    {
      "inputs": [],
      "name": "houseBet",
      "outputs": [],
      "stateMutability": "payable",
      "type": "function"
    },
    {
      "inputs": [],
      "name": "loseStreak",
      "outputs": [
        {
          "internalType": "uint8",
          "name": "",
          "type": "uint8"
        }
      ],
      "stateMutability": "view",
      "type": "function"
    },
    {
      "inputs": [],
      "name": "risk",
      "outputs": [
        {
          "internalType": "uint8",
          "name": "",
          "type": "uint8"
        }
      ],
      "stateMutability": "view",
      "type": "function"
    },
    {
      "stateMutability": "payable",
      "type": "receive"
    }
  ],
  "bytecode": "0x60806040523480156200001157600080fd5b5060405162001731380380620017318339818101604052810190620000379190620000f2565b806000806101000a81548173ffffffffffffffffffffffffffffffffffffffff021916908373ffffffffffffffffffffffffffffffffffffffff16021790555033600160006101000a81548173ffffffffffffffffffffffffffffffffffffffff021916908373ffffffffffffffffffffffffffffffffffffffff1602179055506008600160156101000a81548160ff021916908360ff160217905550506200016c565b600081519050620000ec8162000152565b92915050565b6000602082840312156200010557600080fd5b60006200011584828501620000db565b91505092915050565b60006200012b8262000132565b9050919050565b600073ffffffffffffffffffffffffffffffffffffffff82169050919050565b6200015d816200011e565b81146200016957600080fd5b50565b6115b5806200017c6000396000f3fe6080604052600436106100595760003560e01c8063426a0c8814610065578063892e0a3214610090578063ac793a60146100bb578063c637092c146100d7578063c880bc1614610100578063db28e1361461010a57610060565b3661006057005b600080fd5b34801561007157600080fd5b5061007a610135565b604051610087919061105c565b60405180910390f35b34801561009c57600080fd5b506100a5610148565b6040516100b29190611018565b60405180910390f35b6100d560048036038101906100d09190610cb3565b6101dd565b005b3480156100e357600080fd5b506100fe60048036038101906100f99190610cdc565b61047b565b005b610108610529565b005b34801561011657600080fd5b5061011f6105c1565b60405161012c919061105c565b60405180910390f35b600160159054906101000a900460ff1681565b600080600160149054906101000a900460ff16600160159054906101000a900460ff166101759190611284565b60ff169050806002610187919061110c565b620f424060008054906101000a900473ffffffffffffffffffffffffffffffffffffffff1673ffffffffffffffffffffffffffffffffffffffff16316101cd919061122a565b6101d79190611088565b91505090565b6101e5610148565b3411156101f157600080fd5b600160009054906101000a900473ffffffffffffffffffffffffffffffffffffffff1673ffffffffffffffffffffffffffffffffffffffff166108fc60643461023a9190611088565b9081150290604051600060405180830381858888f19350505050158015610265573d6000803e3d6000fd5b507f189ba8d04ab0c61f5498ae9bd2b2295cd60d6fc895cac86feeb1ee28d1b782d23433604051610297929190611033565b60405180910390a160006040518060a001604052803373ffffffffffffffffffffffffffffffffffffffff16815260200134815260200183815260200160008152602001826002811115610314577f4e487b7100000000000000000000000000000000000000000000000000000000600052602160045260246000fd5b815250600260008201518160000160006101000a81548173ffffffffffffffffffffffffffffffffffffffff021916908373ffffffffffffffffffffffffffffffffffffffff16021790555060208201518160010155604082015181600201556060820151816003015560808201518160040160006101000a81548160ff021916908360028111156103cf577f4e487b7100000000000000000000000000000000000000000000000000000000600052602160045260246000fd5b021790555090505060008060009054906101000a900473ffffffffffffffffffffffffffffffffffffffff1690508073ffffffffffffffffffffffffffffffffffffffff1663bc1b6062600b34610426919061122a565b306040518363ffffffff1660e01b8152600401610444929190611033565b600060405180830381600087803b15801561045e57600080fd5b505af1158015610472573d6000803e3d6000fd5b50505050505050565b600160009054906101000a900473ffffffffffffffffffffffffffffffffffffffff1673ffffffffffffffffffffffffffffffffffffffff163373ffffffffffffffffffffffffffffffffffffffff161461050b576040517f08c379a000000000000000000000000000000000000000000000000000000000815260040161050290610ff8565b60405180910390fd5b80600160156101000a81548160ff021916908360ff16021790555050565b60008054906101000a900473ffffffffffffffffffffffffffffffffffffffff1673ffffffffffffffffffffffffffffffffffffffff163373ffffffffffffffffffffffffffffffffffffffff16146105b7576040517f08c379a00000000000000000000000000000000000000000000000000000000081526004016105ae90610fd8565b60405180910390fd5b6105bf6105d4565b565b600160149054906101000a900460ff1681565b6105dc610c4a565b600260030181905550600060028001541480156105fe57506011600260030154105b8061063057506001600280015414801561061e5750600260030154601111155b801561062f57506022600260030154105b5b806106515750600280600201541480156106505750602260026003015410155b5b156106ae5760028060040160006101000a81548160ff021916908360028111156106a4577f4e487b7100000000000000000000000000000000000000000000000000000000600052602160045260246000fd5b0217905550610703565b6001600260040160006101000a81548160ff021916908360028111156106fd577f4e487b7100000000000000000000000000000000000000000000000000000000600052602160045260246000fd5b02179055505b60028081111561073c577f4e487b7100000000000000000000000000000000000000000000000000000000600052602160045260246000fd5b600260040160009054906101000a900460ff166002811115610787577f4e487b7100000000000000000000000000000000000000000000000000000000600052602160045260246000fd5b1415610b85576001601481819054906101000a900460ff16809291906107ac90611313565b91906101000a81548160ff021916908360ff16021790555050600060028001541415610908577fd92eb9542ce1165ad132f5de2ce2688e1f863d2c44006e2e72b5a9e59d95105c60028060010154610804919061122a565b600260030154604051610818929190610eeb565b60405180910390a1600260000160009054906101000a900473ffffffffffffffffffffffffffffffffffffffff1673ffffffffffffffffffffffffffffffffffffffff166108fc60028060010154610870919061122a565b9081150290604051600060405180830381858888f1935050505015801561089b573d6000803e3d6000fd5b5060008054906101000a900473ffffffffffffffffffffffffffffffffffffffff1673ffffffffffffffffffffffffffffffffffffffff166108fc479081150290604051600060405180830381858888f19350505050158015610902573d6000803e3d6000fd5b50610b80565b600160028001541415610a4b577fd92eb9542ce1165ad132f5de2ce2688e1f863d2c44006e2e72b5a9e59d95105c60028060010154610947919061122a565b60026003015460405161095b929190610f3a565b60405180910390a1600260000160009054906101000a900473ffffffffffffffffffffffffffffffffffffffff1673ffffffffffffffffffffffffffffffffffffffff166108fc600280600101546109b3919061122a565b9081150290604051600060405180830381858888f193505050501580156109de573d6000803e3d6000fd5b5060008054906101000a900473ffffffffffffffffffffffffffffffffffffffff1673ffffffffffffffffffffffffffffffffffffffff166108fc479081150290604051600060405180830381858888f19350505050158015610a45573d6000803e3d6000fd5b50610b7f565b7fd92eb9542ce1165ad132f5de2ce2688e1f863d2c44006e2e72b5a9e59d95105c600c600260010154610a7e919061122a565b600260030154604051610a92929190610e9c565b60405180910390a1600260000160009054906101000a900473ffffffffffffffffffffffffffffffffffffffff1673ffffffffffffffffffffffffffffffffffffffff166108fc600c600260010154610aeb919061122a565b9081150290604051600060405180830381858888f19350505050158015610b16573d6000803e3d6000fd5b5060008054906101000a900473ffffffffffffffffffffffffffffffffffffffff1673ffffffffffffffffffffffffffffffffffffffff166108fc479081150290604051600060405180830381858888f19350505050158015610b7d573d6000803e3d6000fd5b505b5b610c48565b6000600160146101000a81548160ff021916908360ff1602179055507fd92eb9542ce1165ad132f5de2ce2688e1f863d2c44006e2e72b5a9e59d95105c6000600260030154604051610bd8929190610f89565b60405180910390a160008054906101000a900473ffffffffffffffffffffffffffffffffffffffff1673ffffffffffffffffffffffffffffffffffffffff166108fc479081150290604051600060405180830381858888f19350505050158015610c46573d6000803e3d6000fd5b505b565b600060244442604051602001610c61929190610e70565b6040516020818303038152906040528051906020012060001c610c849190611347565b905090565b600081359050610c9881611551565b92915050565b600081359050610cad81611568565b92915050565b600060208284031215610cc557600080fd5b6000610cd384828501610c89565b91505092915050565b600060208284031215610cee57600080fd5b6000610cfc84828501610c9e565b91505092915050565b610d0e816112b8565b82525050565b610d1d81611301565b82525050565b6000610d30600683611077565b9150610d3b826113e3565b602082019050919050565b6000610d53600583611077565b9150610d5e8261140c565b602082019050919050565b6000610d76600583611077565b9150610d8182611435565b602082019050919050565b6000610d99600583611077565b9150610da48261145e565b602082019050919050565b6000610dbc602b83611077565b9150610dc782611487565b604082019050919050565b6000610ddf601c83611077565b9150610dea826114d6565b602082019050919050565b6000610e02600483611077565b9150610e0d826114ff565b602082019050919050565b6000610e25600383611077565b9150610e3082611528565b602082019050919050565b610e44816112ea565b82525050565b610e5b610e56826112ea565b61133d565b82525050565b610e6a816112f4565b82525050565b6000610e7c8285610e4a565b602082019150610e8c8284610e4a565b6020820191508190509392505050565b60006080820190508181036000830152610eb581610d23565b9050610ec46020830185610e3b565b8181036040830152610ed581610d46565b9050610ee46060830184610e3b565b9392505050565b60006080820190508181036000830152610f0481610d23565b9050610f136020830185610e3b565b8181036040830152610f2481610d69565b9050610f336060830184610e3b565b9392505050565b60006080820190508181036000830152610f5381610d23565b9050610f626020830185610e3b565b8181036040830152610f7381610e18565b9050610f826060830184610e3b565b9392505050565b60006080820190508181036000830152610fa281610d8c565b9050610fb16020830185610d14565b8181036040830152610fc281610df5565b9050610fd16060830184610e3b565b9392505050565b60006020820190508181036000830152610ff181610daf565b9050919050565b6000602082019050818103600083015261101181610dd2565b9050919050565b600060208201905061102d6000830184610e3b565b92915050565b60006040820190506110486000830185610e3b565b6110556020830184610d05565b9392505050565b60006020820190506110716000830184610e61565b92915050565b600082825260208201905092915050565b6000611093826112ea565b915061109e836112ea565b9250826110ae576110ad6113a7565b5b828204905092915050565b6000808291508390505b6001851115611103578086048111156110df576110de611378565b5b60018516156110ee5780820291505b80810290506110fc856113d6565b94506110c3565b94509492505050565b6000611117826112ea565b9150611122836112ea565b925061114f7fffffffffffffffffffffffffffffffffffffffffffffffffffffffffffffffff8484611157565b905092915050565b6000826111675760019050611223565b816111755760009050611223565b816001811461118b5760028114611195576111c4565b6001915050611223565b60ff8411156111a7576111a6611378565b5b8360020a9150848211156111be576111bd611378565b5b50611223565b5060208310610133831016604e8410600b84101617156111f95782820a9050838111156111f4576111f3611378565b5b611223565b61120684848460016110b9565b9250905081840481111561121d5761121c611378565b5b81810290505b9392505050565b6000611235826112ea565b9150611240836112ea565b9250817fffffffffffffffffffffffffffffffffffffffffffffffffffffffffffffffff048311821515161561127957611278611378565b5b828202905092915050565b600061128f826112f4565b915061129a836112f4565b9250828210156112ad576112ac611378565b5b828203905092915050565b60006112c3826112ca565b9050919050565b600073ffffffffffffffffffffffffffffffffffffffff82169050919050565b6000819050919050565b600060ff82169050919050565b600061130c826112ea565b9050919050565b600061131e826112f4565b915060ff82141561133257611331611378565b5b600182019050919050565b6000819050919050565b6000611352826112ea565b915061135d836112ea565b92508261136d5761136c6113a7565b5b828206905092915050565b7f4e487b7100000000000000000000000000000000000000000000000000000000600052601160045260246000fd5b7f4e487b7100000000000000000000000000000000000000000000000000000000600052601260045260246000fd5b60008160011c9050919050565b7f504c415945520000000000000000000000000000000000000000000000000000600082015250565b7f475245454e000000000000000000000000000000000000000000000000000000600082015250565b7f424c41434b000000000000000000000000000000000000000000000000000000600082015250565b7f484f555345000000000000000000000000000000000000000000000000000000600082015250565b7f46756e6374696f6e20776173206e6f742043616c6c656420496e7465726e616c60008201527f6c7920627920486f757365000000000000000000000000000000000000000000602082015250565b7f46756e6374696f6e206e6f742063616c6c6564206279206f776e657200000000600082015250565b7f4c4f535400000000000000000000000000000000000000000000000000000000600082015250565b7f5245440000000000000000000000000000000000000000000000000000000000600082015250565b61155a816112ea565b811461156557600080fd5b50565b611571816112f4565b811461157c57600080fd5b5056fea264697066735822122035542c2a565bab990d7bed1155b85f2d9bae83eaeb5f08cf63fbbed4aa3970fb64736f6c63430008040033",
  "linkReferences": {},
  "deployedLinkReferences": {}
}